:100000000C942A000C9447000C9447000C94470071
:100010000C9447000C9447000C9447000C941A036E
:100020000C9447000C9447000C9447000C94470034
:100030000C9447000C9447000C9447000C94470024
:100040000C9447000C9447000C9447000C94470014
:100050000C94470011241FBECFE5D8E0DEBFCDBF12
:1000600010E0A0E6B0E0E2E3F9E402C005900D92F2
:10007000A837B107D9F716E0A8E7B0E001C01D9294
:10008000A63CB107E1F70E9447240C9497240C94F6
:100090000000DF93CF93CDB7DEB728970FB6F89463
:1000A000DEBF0FBECDBF9C838B837E836D8358875D
:1000B0004F83EB81FC8181E180838B819C8101975F
:1000C0009C838B83EB81FC8182E280838B819C818A
:1000D00001979C838B83EB81FC8183E380838B81FD
:1000E0009C8101979C838B838D819E819A838983D8
:1000F0008981EB81FC8180838B819C8101979C832A
:100100008B8389819A81892F99279A838983898111
:10011000EB81FC8180838B819C8101979C838B8305
:10012000EB81FC8110828B819C8101979C838B8366
:10013000EB81FC8180E880838B819C8101979C838B
:100140008B83EB81FC8110828B819C8101979C8346
:100150008B83EB81FC8182E080838B819C81019782
:100160009C838B83EB81FC8183E080838B819C81EA
:1001700001979C838B83EB81FC8184E080838B815E
:100180009C8101979C838B83EB81FC8185E080833C
:100190008B819C8101979C838B83EB81FC8186E022
:1001A00080838B819C8101979C838B83EB81FC8175
:1001B00087E080838B819C8101979C838B83EB817B
:1001C000FC8188E080838B819C8101979C838B8359
:1001D000EB81FC8189E080838B819C8101979C83EA
:1001E0008B83EB81FC8180E180838B819C810197F3
:1001F0009C838B83EB81FC8181E180838B819C815B
:1002000001979C838B83EB81FC8182E180838B81CE
:100210009C8101979C838B83EB81FC8183E18083AC
:100220008B819C8101979C838B83EB81FC8184E192
:1002300080838B819C8101979C838B83EB81FC81E4
:1002400085E180838B819C8101979C838B83EB81EB
:10025000FC8186E180838B819C8101979C838B83C9
:10026000EB81FC8187E180838B819C8101979C835A
:100270008B83EB81FC8188E180838B819C8101975A
:100280009C838B83EB81FC8189E180838B819C81C2
:1002900001979C838B83EB81FC8180E280838B813F
:1002A0009C8101979C838B83EB81FC8181E280831D
:1002B0008B819C8101979C838B83EB81FC8182E203
:1002C00080838B819C8101979C838B83EB81FC8154
:1002D00083E280838B819C8101979C838B838F81B8
:1002E00098859A8389838981EB81FC8180838B81C6
:1002F0009C8101979C838B8389819A81892F99277F
:100300009A8389838981EB81FC8180838B819C81A5
:1003100001979C838B83EB81FC8186E280838B81B8
:100320009C8101979C838B83EB81FC8187E2808396
:100330008B819C8101979C838B83EB81FC8188E27C
:1003400080838B819C8101979C838B83EB81FC81D3
:1003500089E280838B819C8101979C838B83EB81D5
:10036000FC8180E380838B819C8101979C838B83BC
:10037000EB81FC8181E380838B819C8101979C834D
:100380008B838B819C8128960FB6F894DEBF0FBEBD
:10039000CDBFCF91DF910895DF93CF93CDB7DEB777
:1003A0000E94BE02A0915806B0915906CD91CDBFD2
:1003B000DD91DEBFFF91EF91DF91CF91BF91AF91C2
:1003C0009F918F917F916F915F914F913F912F916D
:1003D0001F910F91FF90EF90DF90CF90BF90AF9063
:1003E0009F908F907F906F905F904F903F902F9055
:1003F0001F900F900FBE0F90089581E0CF91DF9175
:100400000895DF93CF93CDB7DEB7CF91DF910895F5
:100410000F920FB6F8940F921F9211242F923F92D1
:100420004F925F926F927F928F929F92AF92BF9204
:10043000CF92DF92EF92FF920F931F932F933F93F0
:100440004F935F936F937F938F939F93AF93BF93DC
:10045000CF93DF93EF93FF93A0915806B091590685
:100460000DB60D920EB60D920E94961CA0915806E4
:10047000B0915906CD91CDBFDD91DEBFFF91EF91D7
:10048000DF91CF91BF91AF919F918F917F916F91AC
:100490005F914F913F912F911F910F91FF90EF909E
:1004A000DF90CF90BF90AF909F908F907F906F9094
:1004B0005F904F903F902F901F900F900FBE0F9026
:1004C00008950F920FB6F8940F921F9211242F9255
:1004D0003F924F925F926F927F928F929F92AF92D4
:1004E000BF92CF92DF92EF92FF920F931F932F93C1
:1004F0003F934F935F936F937F938F939F93AF93AC
:10050000BF93CF93DF93EF93FF93A0915806B091E1
:1005100059060DB60D920EB60D920E94B11B88239E
:1005200011F00E94961CA0915806B0915906CD91E9
:10053000CDBFDD91DEBFFF91EF91DF91CF91BF91F4
:10054000AF919F918F917F916F915F914F913F916B
:100550002F911F910F91FF90EF90DF90CF90BF9060
:10056000AF909F908F907F906F905F904F903F9053
:100570002F901F900F900FBE0F900895DF93CF9391
:1005800000D000D000D0CDB7DEB780E49FE1A0E07E
:10059000B0E08B839C83AD83BE838B819C81AD81D6
:1005A000BE81689415F8B695A7959795879516948A
:1005B000D1F78B839C83AD83BE838B819C81AD817E
:1005C000BE810197A109B1098B839C83AD83BE8352
:1005D0008B8189838B819C81AD81BE81892F9A2FEC
:1005E000AB2FBB278B839C83AD83BE838B818A8398
:1005F000EBE4F0E08A818083EAE4F0E089818083A3
:100600008BE08983EEE4F0E089818083E9E5F0E026
:1006100080818983898180618983E9E5F0E089812E
:10062000808326960FB6F894DEBF0FBECDBFCF9164
:10063000DF9108950E9461021895DF93CF9300D057
:10064000CDB7DEB78BE090E00E9462069A83898383
:1006500089819A81009749F0E981FA81118210829B
:1006600089819A8102960E94DE0689819A810F9083
:100670000F90CF91DF910895DF93CF93CDB7DEB781
:1006800060970FB6F894DEBF0FBECDBF9A878987FB
:100690007C876B875E874D87388B2F8789859A8506
:1006A0009C838B8319820E94B51AEB81FC81808127
:1006B000918198878F8389859A852B853C85B9019F
:1006C0000E9413052F8138858B859C85282B392B1B
:1006D0008D859E85282339238D859E85281739078A
:1006E000C9F42F8138858B859C85822B932B9E8323
:1006F0008D83EB81FC81208131818D859E85809564
:10070000909582239323EB81FC8191838083188AC7
:100710001F861EC08F859889009791F08B819C81E0
:10072000BC016E5F7F4F8D859E859C0135604F8536
:100730005889CB01B9010E94251D1E821D8208C067
:10074000EB81FC81808191819E838D8381E089830F
:100750000E94C11A8A838F859889009709F43AC04C
:100760008A81882311F40E9408020E94981F9E83A8
:100770008D838D819E8180709270009731F50FB6C8
:10078000F8940F92EB81FC81808191819E838D830F
:100790002D813E818D859E85282339238D859E85DB
:1007A0002817390771F4EB81FC81208131818D8517
:1007B0009E858095909582239323EB81FC81918384
:1007C00080830F900FBE81E089838D819E81907020
:1007D0009E838D838D819E8160960FB6F894DEBFD7
:1007E0000FBECDBFCF91DF9108950F931F93DF937D
:1007F000CF93CDB7DEB763970FB6F894DEBF0FBEC9
:10080000CDBF9D878C877F876E87488B298B1B8BFD
:100810000A8B8C859D859B878A871F821E821B82FF
:100820000E94B51AEA85FB85808191819A8389832C
:1008300089819A812E853F85B90149890E943006B8
:100840008D838D818823C1F089819A8199878887DA
:100850001B8A1A8A88898823E9F1EA85FB85208129
:1008600031818E859F858095909582239323EA859B
:10087000FB85918380832EC08A899B89009739F4F8
:1008800089819A819987888781E08B8323C08889B1
:10089000882329F08E819F8191609F838E8389892F
:1008A000882329F08E819F8194609F838E838A851F
:1008B0009B85BC016E5F7F4F2E853F858E819F811A
:1008C000282B392B4A895B89CB01B9010E94251D50
:1008D000198618860E94C11A8C838A899B89009781
:1008E00009F43CC08C81882311F40E9408020E9404
:1008F000981F99878887888599858070927000975E
:1009000041F50FB6F8940F92EA85FB8580819181BD
:1009100099878887888599852E853F85B90149897A
:100920000E943006882389F08889882371F0EA853F
:10093000FB85208131818E859F85809590958223CE
:100940009323EA85FB859183808381E08B830F90DD
:100950000FBE888599859070998788878885998545
:1009600063960FB6F894DEBF0FBECDBFCF91DF9177
:100970001F910F910895DF93CF93CDB7DEB72897DE
:100980000FB6F894DEBF0FBECDBF9E838D837887F0
:100990006F838D819E819C838B830FB6F8940F9219
:1009A000EB81FC81808191819A838983EB81FC8139
:1009B000208131818F819885809590958223932322
:1009C000EB81FC81918380830F900FBE89819A8196
:1009D00028960FB6F894DEBF0FBECDBFCF91DF9142
:1009E0000895DF93CF93CDB7DEB727970FB6F8946E
:1009F000DEBF0FBECDBF9F838E838E819F819C8380
:100A00008B831D82EB81FC81808191819A83898314
:100A100089819A8127960FB6F894DEBF0FBECDBFAD
:100A2000CF91DF910895DF93CF93CDB7DEB7659770
:100A30000FB6F894DEBF0FBECDBF9B8B8A8B7D8B2C
:100A40006C8B198618868A899B899B838A83198275
:100A50008A819B8102969B878A878A859B850396DC
:100A60009D878C870E94B51AEA85FB8585819681D2
:100A7000998B888BEA81FB81208131818C899D89CA
:100A8000822B932BEA81FB819183808359C0E88973
:100A9000F989828193819F878E87E889F98980818E
:100AA00091819F838E8319828E819F8180709D8327
:100AB0008C838E819F8190709F838E838C819D819A
:100AC00080709470009769F4EA81FB812081318104
:100AD0008E819F8182239323009791F081E0898307
:100AE0000FC0EA81FB81208131818E819F81282383
:100AF00039238E819F812817390711F481E089837A
:100B000089818823C9F08C819D81807091700097C4
:100B100041F0888599852E813F81822B932B99877F
:100B20008887EA81FB81808191819C01326088897C
:100B30009989B9010E94C01D8E859F85998B888BEC
:100B4000288939898C859D852817390709F09FCF19
:100B5000EA81FB81208131818885998580959095F6
:100B600082239323EA81FB81918380830E94C11AAF
:100B7000EA81FB818081918165960FB6F894DEBF92
:100B80000FBECDBFCF91DF910895DF93CF9300D0FB
:100B900000D000D0CDB7DEB79E838D838D819E813E
:100BA0009C838B838B819C8102969A8389830E948C
:100BB000B51A08C0E981FA818581968160E072E00A
:100BC0000E94C01DE981FA818081882399F78B8179
:100BD0009C810E94B8060E94C11A26960FB6F8940E
:100BE000DEBF0FBECDBFCF91DF910895DF93CF93CE
:100BF00000D000D000D0CDB7DEB79A8389834B8375
:100C00005C836D837E8389819A812B813C81B901CC
:100C10000E94130526960FB6F894DEBF0FBECDBF17
:100C2000CF91DF910895DF93CF9300D000D000D013
:100C3000CDB7DEB79A8389834B835C836D837E83D4
:100C400089819A812B813C81B9010E94BB0426963F
:100C50000FB6F894DEBF0FBECDBFCF91DF910895E0
:100C6000DF93CF9300D000D000D0CDB7DEB79B8309
:100C70008A837D836C834E8319828E81882359F405
:100C80008A819B812C813D8182239323009781F06F
:100C900081E089830DC02A813B818C819D8128233D
:100CA00039238C819D812817390711F481E08983CC
:100CB000898126960FB6F894DEBF0FBECDBFCF91C7
:100CC000DF910895DF93CF9300D000D0CDB7DEB78A
:100CD0009C838B831A8219820E94B51A80917A00B4
:100CE00090917B00009731F48DE790E090937B002A
:100CF00080937A0080917800909179002B813C81DB
:100D0000820F931F25E08B3D920738F520917800E4
:100D1000309179008B819C81280F391F8091780058
:100D20009091790082179307C0F420917A00309156
:100D30007B008091780090917900820F931F9A83B5
:100D4000898320917800309179008B819C81820F7A
:100D5000931F90937900809378000E94C11A898133
:100D60009A810F900F900F900F90CF91DF9108957F
:100D7000DF93CF9300D0CDB7DEB79A8389830F90EE
:100D80000F90CF91DF910895DF93CF93CDB7DEB76A
:100D90001092790010927800CF91DF910895DF933F
:100DA000CF93CDB7DEB720917800309179008BEDED
:100DB00095E0821B930BCF91DF910895DF93CF9342
:100DC00000D0CDB7DEB79A83898389819A81039653
:100DD000E981FA8192838183E981FA818FEF9FEF24
:100DE0009483838389819A810396E981FA8196832A
:100DF000858389819A810396E981FA819087878327
:100E0000E981FA8110820F900F90CF91DF910895C0
:100E1000DF93CF9300D0CDB7DEB79A838983E98182
:100E2000FA81118610860F900F90CF91DF9108956F
:100E3000DF93CF9300D000D000D0CDB7DEB79C8336
:100E40008B837E836D83EB81FC81818192819A8388
:100E50008983ED81FE8189819A8193838283E981EF
:100E6000FA8184819581ED81FE8195838483E98176
:100E7000FA810480F581E02D8D819E8193838283A8
:100E8000E981FA818D819E8195838483ED81FE8144
:100E90008B819C8191878087EB81FC8180818F5F32
:100EA000EB81FC81808326960FB6F894DEBF0FBEDF
:100EB000CDBFCF91DF910895DF93CF93CDB7DEB74C
:100EC00028970FB6F894DEBF0FBECDBF9E838D83EB
:100ED00078876F83EF81F885808191819A838983F8
:100EE00089819A812FEF8F3F920739F4ED81FE813E
:100EF000878190859C838B8318C08D819E8103960A
:100F00009C838B8306C0EB81FC81828193819C83CF
:100F10008B83EB81FC810280F381E02D2081318184
:100F200089819A818217930770F7EB81FC81828116
:100F30009381EF81F88593838283EF81F885028026
:100F4000F381E02D8F81988595838483EF81F885E7
:100F50008B819C8195838483EB81FC818F81988533
:100F600093838283EF81F8858D819E81918780872D
:100F7000ED81FE8180818F5FED81FE8180832896E7
:100F80000FB6F894DEBF0FBECDBFCF91DF910895AD
:100F9000DF93CF9300D000D0CDB7DEB79C838B8397
:100FA000EB81FC81808591859A838983EB81FC812B
:100FB000A281B381EB81FC818481958115969C93FC
:100FC0008E931497EB81FC81A481B581EB81FC8128
:100FD0008281938113969C938E931297E981FA8173
:100FE000218132818B819C812817390741F4EB8163
:100FF000FC8184819581E981FA8192838183EB81EF
:10100000FC8111861086E981FA8180818150E98115
:10101000FA818083E981FA8180810F900F900F908F
:101020000F90CF91DF910895DF93CF9300D000D040
:101030000F92CDB7DEB79C838B836D838B819C81B0
:101040009A8389830FB6F8940F92E981FA814081DF
:101050005181E981FA81838D282F30E0E981FA817D
:10106000848D882F90E0BC01269FC001279F900DA2
:10107000369F900D1124840F951FE981FA81958385
:101080008483E981FA81128EE981FA8180819181DC
:10109000E981FA8193838283E981FA8140815181D8
:1010A000E981FA81838D882F90E09C0121503040A6
:1010B000E981FA81848D882F90E0BC01269FC001D0
:1010C000279F900D369F900D1124840F951FE98165
:1010D000FA8197838683E981FA818FEF858FE98191
:1010E000FA818FEF868F8D81882379F4E981FA81E7
:1010F00080858823A1F089819A8108960E94551DD8
:10110000882369F00E9408020AC089819A810896A2
:101110000E94DE0689819A8141960E94DE060F9028
:101120000FBE81E00F900F900F900F900F90CF9116
:10113000DF9108950F931F93DF93CF93CDB7DEB761
:1011400029970FB6F894DEBF0FBECDBF8F83688797
:1011500049878885882319F41C821B8210C08F81DF
:10116000282F30E08885882F90E0AC01249FC001B3
:10117000259F900D349F900D11249C838B838B8130
:101180009C814F960E9462069E838D838D819E81F5
:101190000097A1F08D819E819A83898389819A81AC
:1011A0004F969A83898329813A81ED81FE818F81CF
:1011B0006885A90129858F010E94EB088D819E8198
:1011C00029960FB6F894DEBF0FBECDBFCF91DF9149
:1011D0001F910F9108950F931F93DF93CF93CDB776
:1011E000DEB727970FB6F894DEBF0FBECDBF898359
:1011F0006A835C834B832D831F830E838A818823BC
:1012000039F48E819F81EE81FF819183808306C0B6
:101210008B819C81EE81FF8191838083EE81FF81B0
:101220008981838FEE81FF818A81848F8E819F8166
:1012300061E00E94140827960FB6F894DEBF0FBE37
:10124000CDBFCF91DF911F910F910895DF93CF9381
:10125000CDB7DEB72F970FB6F894DEBF0FBECDBF68
:10126000998788877B876A875D874C872E871C8252
:10127000888599859A8389830FB6F8940F92E981BE
:10128000FA81928DE981FA81838D981718F08E8505
:10129000823011F589819A812A853B85B9014E8575
:1012A0000E94780D8B83E981FA818189882351F02E
:1012B00089819A8141960E94551D882341F00E94A0
:1012C000080205C08B81882311F00E9408020F904C
:1012D0000FBE81E08F875CC08C859D85009721F4CF
:1012E0000F900FBE1F8654C08C81882331F4CE012D
:1012F00005960E943B1E81E08C830F900FBE0E94DA
:10130000B51A0FB6F8940F92E981FA81858D8F3F57
:1013100019F4E981FA81158EE981FA81868D8F3F72
:1013200019F4E981FA81168E0F900FBECE01059651
:101330009E01245F3F4FB9010E94541E882309F586
:1013400089819A810E94F40E8823A1F089819A8173
:1013500008962C853D85B9010E94031D89819A81DB
:101360000E94650E0E94C11A882309F085CF0E9451
:10137000080282CF89819A810E94650E0E94C11A5B
:101380007BCF89819A810E94650E0E94C11A1F86B7
:101390008F852F960FB6F894DEBF0FBECDBFCF91CD
:1013A000DF910895DF93CF93CDB7DEB72C970FB6BB
:1013B000F894DEBF0FBECDBF9F838E837987688789
:1013C0005B874A872C878E819F819B838A831C82BF
:1013D000EA81FB81928DEA81FB81838D981718F059
:1013E0008C85823061F5EA81FB81868D89838A81D3
:1013F0009B8128853985B9014C850E94780D8981AA
:101400008F3FA9F4EA81FB8181898823A9F08A8131
:101410009B8141960E94551D882371F08A859B858A
:10142000009751F0EA85FB8581E0808305C08981C2
:101430008F5FEA81FB81868F81E08D8301C01D82F1
:101440008D812C960FB6F894DEBF0FBECDBFCF9125
:10145000DF910895DF93CF93CDB7DEB72A970FB60C
:10146000F894DEBF0FBECDBF98878F837A876987D8
:101470008F8198859C838B831D82EB81FC81828D7B
:101480008A83EB81FC81938D8A81891748F5EB81F2
:10149000FC81868D89838A818F5FEB81FC81828FBD
:1014A00089818F3FA9F4EB81FC8181898823A9F090
:1014B0008B819C8141960E94551D882371F08985FE
:1014C0009A85009751F0E985FA8581E0808305C00F
:1014D00089818F5FEB81FC81868F81E08E8301C0E3
:1014E0001E828E812A960FB6F894DEBF0FBECDBF46
:1014F000CF91DF910895DF93CF93CDB7DEB72E97CD
:101500000FB6F894DEBF0FBECDBF998788877B8763
:101510006A875D874C871C82888599859B838A832F
:101520000FB6F8940F92EA81FB81828D89838981BD
:101530008823F9F08A819B812A853B85B9010E9425
:101540001E0E89818150EA81FB81828FEA81FB81B5
:101550008085882349F08A819B8108960E94551DC9
:10156000882311F00E9408020F900FBE81E08E8741
:1015700063C08C859D85009721F40F900FBE1E8659
:101580005BC08C81882331F4CE0105960E943B1EFE
:1015900081E08C830F900FBE0E94B51A0FB6F894AD
:1015A0000F92EA81FB81858D8F3F19F4EA81FB81DF
:1015B000158EEA81FB81868D8F3F19F4EA81FB81CC
:1015C000168E0F900FBECE0105969E01245F3F4FF1
:1015D000B9010E94541E882309F58A819B810E94CB
:1015E000B80E8823A1F08A819B8141962C853D8588
:1015F000B9010E94031D8A819B810E94650E0E9491
:10160000C11A882309F08CCF0E94080289CF8A81F1
:101610009B810E94650E0E94C11A82CF8A819B81A4
:101620000E94650E0E94C11A8A819B810E94B80E99
:10163000882309F475CF1E868E852E960FB6F894F2
:10164000DEBF0FBECDBFCF91DF910895DF93CF9363
:10165000CDB7DEB72C970FB6F894DEBF0FBECDBF67
:10166000998788877B876A871C82888599859B8371
:101670008A830FB6F8940F92EA81FB81828D898369
:1016800089818823C1F089818150EA81FB81828F21
:10169000EA81FB818085882349F08A819B810896B5
:1016A0000E94551D882311F00E9408020F900FBE62
:1016B00081E08C8763C08A859B85009721F40F9019
:1016C0000FBE1C865BC08C81882331F4CE01059649
:1016D0000E943B1E81E08C830F900FBE0E94B51AC2
:1016E0000FB6F8940F92EA81FB81858D8F3F19F434
:1016F000EA81FB81158EEA81FB81868D8F3F19F48B
:10170000EA81FB81168E0F900FBECE0105969E01D9
:10171000265F3F4FB9010E94541E882309F58A8134
:101720009B810E94B80E8823A1F08A819B814196FB
:101730002A853B85B9010E94031D8A819B810E94F5
:10174000650E0E94C11A882309F093CF0E940802F7
:1017500090CF8A819B810E94650E0E94C11A89CF19
:101760008A819B810E94650E0E94C11A8A819B8199
:101770000E94B80E882309F47CCF1C868C852C9699
:101780000FB6F894DEBF0FBECDBFCF91DF910895A5
:10179000DF93CF93CDB7DEB760970FB6F894DEBF77
:1017A0000FBECDBF9B878A877D876C875F874E87FB
:1017B0001E828A859B859B838A830FB6F8940F923D
:1017C000EA81FB81828D89838981882331F1EA81D5
:1017D000FB81868197819D838C838A819B812C8567
:1017E0003D85B9010E941E0EEA81FB818C819D819D
:1017F00097838683EA81FB818189882349F08A81E6
:101800009B8141960E94551D882311F00E94080279
:101810000F900FBE81E0888B63C08E859F850097F7
:1018200021F40F900FBE188A5BC08E81882331F49B
:10183000CE0107960E943B1E81E08E830F900FBE63
:101840000E94B51A0FB6F8940F92EA81FB81858D3C
:101850008F3F19F4EA81FB81158EEA81FB81868D29
:101860008F3F19F4EA81FB81168E0F900FBECE01D7
:1018700007969E01225F3F4FB9010E94541E8823A4
:1018800009F58A819B810E94B80E8823A1F08A8184
:101890009B8141962E853F85B9010E94031D8A8157
:1018A0009B810E94650E0E94C11A882309F085CF92
:1018B0000E94080282CF8A819B810E94650E0E944D
:1018C000C11A7BCF8A819B810E94650E0E94C11A3A
:1018D0008A819B810E94B80E882309F46ECF188AF2
:1018E000888960960FB6F894DEBF0FBECDBFCF914A
:1018F000DF910895DF93CF93CDB7DEB72C970FB666
:10190000F894DEBF0FBECDBF98878F837A87698733
:101910005C874B878F8198859C838B831D82EB81AD
:10192000FC81828D8A838A81882381F1EB81FC810D
:10193000858D89838B819C8129853A85B9010E9497
:101940001E0E8A818150EB81FC81828F89818F3FBD
:10195000A9F4EB81FC8180858823A9F08B819C818F
:1019600008960E94551D882371F08B859C850097F1
:1019700051F0EB85FC8581E0808305C089818F5F14
:10198000EB81FC81858F81E08E8301C01E828E8178
:101990002C960FB6F894DEBF0FBECDBFCF91DF916E
:1019A0000895DF93CF93CDB7DEB72A970FB6F8949B
:1019B000DEBF0FBECDBF98878F837A8769878F81FF
:1019C00098859A8389831D82E981FA81828D882393
:1019D000B1F0E981FA81868197819C838B8389812B
:1019E0009A8129853A85B9010E941E0EE981FA8102
:1019F0008B819C819783868381E08E8301C01E82C8
:101A00008E812A960FB6F894DEBF0FBECDBFCF9160
:101A1000DF910895DF93CF9300D00F92CDB7DEB75B
:101A20009B838A830FB6F8940F92EA81FB81828DA3
:101A300089830F900FBE89810F900F900F90CF91E7
:101A4000DF910895DF93CF9300D000D00F92CDB7F0
:101A5000DEB79D838C838C819D819A8389830FB6A9
:101A6000F8940F92E981FA81938DE981FA81828D50
:101A7000292F281B822F8B830F900FBE8B810F90F5
:101A80000F900F900F900F90CF91DF910895DF93FB
:101A9000CF9300D000D00F92CDB7DEB79D838C835B
:101AA0008C819D819A838983E981FA81828D8B83E0
:101AB0008B810F900F900F900F900F90CF91DF912F
:101AC0000895DF93CF9300D000D0CDB7DEB79C83CD
:101AD0008B838B819C819A83898389819A810E94DF
:101AE000B8060F900F900F900F90CF91DF9108954F
:101AF000DF93CF93CDB7DEB727970FB6F894DEBF4D
:101B00000FBECDBF9C838B837E836D834F831A82F0
:101B1000EB81FC81828D8983EB81FC81848D88231C
:101B200009F47DC08F81882399F5EB81FC81628166
:101B30007381EB81FC81848D482F50E02D813E81A3
:101B4000CB01B9010E948724EB81FC812281338182
:101B5000EB81FC81848D882F90E0820F931FEB81B5
:101B6000FC8193838283EB81FC8122813381EB8131
:101B7000FC81848195812817390708F450C0EB81D6
:101B8000FC8180819181EB81FC819383828347C0BA
:101B9000EB81FC8166817781EB81FC81848D482F0C
:101BA00050E02D813E81CB01B9010E948724EB8159
:101BB000FC8126813781EB81FC81848D882F90E028
:101BC000909581959F4F820F931FEB81FC819783A6
:101BD0008683EB81FC8126813781EB81FC818081CA
:101BE00091812817390790F4EB81FC81248135819C
:101BF000EB81FC81848D882F90E0909581959F4F9B
:101C0000820F931FEB81FC81978386838F818230C3
:101C100031F48981882319F08981815089838981F0
:101C20008F5FEB81FC81828F8A8127960FB6F894B3
:101C3000DEBF0FBECDBFCF91DF910895DF93CF936D
:101C400000D000D0CDB7DEB79A8389837C836B83C5
:101C5000E981FA81848D882389F1E981FA812681DD
:101C60003781E981FA81848D882F90E0820F931F5C
:101C7000E981FA8197838683E981FA812681378118
:101C8000E981FA81848195812817390740F0E9813B
:101C9000FA8180819181E981FA8197838683E98144
:101CA000FA8146815781E981FA81848D282F30E0BD
:101CB0008B819C81BA01A9010E9487240F900F900B
:101CC0000F900F90CF91DF910895DF93CF9300D0C5
:101CD00000D0CDB7DEB79C838B830FB6F8940F92FC
:101CE000EB81FC81868D8A8311C0EB81FC81818927
:101CF000882379F08B819C8141960E94551D882311
:101D000011F00E94C11E8A8181508A838A8118162F
:101D100064F3EB81FC818FEF868F0F900FBE0FB6BF
:101D2000F8940F92EB81FC81858D898311C0EB8142
:101D3000FC818085882379F08B819C8108960E94A4
:101D4000551D882311F00E94C11E8981815089830D
:101D50008981181664F3EB81FC818FEF858F0F90DA
:101D60000FBE0F900F900F900F90CF91DF910895BD
:101D7000DF93CF9300D00F92CDB7DEB79B838A83DA
:101D80000FB6F8940F92EA81FB81828D882319F4B3
:101D900081E0898301C019820F900FBE89810F9065
:101DA0000F900F90CF91DF910895DF93CF9300D0E4
:101DB00000D00F92CDB7DEB79D838C838C819D813F
:101DC0009A838983E981FA81828D882319F481E0DD
:101DD0008B8301C01B828B810F900F900F900F900F
:101DE0000F90CF91DF910895DF93CF9300D00F92A2
:101DF000CDB7DEB79B838A830FB6F8940F92EA8142
:101E0000FB81928DEA81FB81838D981719F481E023
:101E1000898301C019820F900FBE89810F900F90A6
:101E20000F90CF91DF910895DF93CF9300D000D032
:101E30000F92CDB7DEB79D838C838C819D819A8371
:101E40008983E981FA81928DE981FA81838D9817DE
:101E500019F481E08B8301C01B828B810F900F905E
:101E60000F900F900F90CF91DF9108950F93DF9314
:101E7000CF93CDB7DEB728970FB6F894DEBF0FBE6D
:101E8000CDBF9D838C837F836E8348878885813017
:101E900019F481E0898301C019828E819F810097A6
:101EA00021F481E090E09F838E838C819D81019657
:101EB0009D838C838C819D810F960E9462069B83FB
:101EC0008A838A819B81009789F06A817B818A81DC
:101ED0009B819C01215F3F4F4C815D81EE81FF81A1
:101EE000CB01B9019F0109810E948E168A819B81D5
:101EF00028960FB6F894DEBF0FBECDBFCF91DF910D
:101F00000F910895DF93CF9300D000D0CDB7DEB707
:101F10009C838B838B819C819A838983E981FA815D
:101F20008685882F90E082709070009729F48981CF
:101F30009A810E94B80608C089819A8160E070E0A9
:101F40004FE050E00E9490240F900F900F900F9060
:101F5000CF91DF9108950F93DF93CF9300D000D0FE
:101F60000F92CDB7DEB79D838C838C819D819B833F
:101F70008A8319820FB6F8940F92EA81FB818085DB
:101F800091850097F1F4EA81FB8182859385009722
:101F9000C1F4EA81FB8124853585EA81FB81448196
:101FA0005581EA81FB81A681B781EA81FB81E685C3
:101FB0008A819B81B9019D010E2F0E948E1681E0BE
:101FC00089830F900FBE89810F900F900F900F9013
:101FD0000F90CF91DF910F910895DF93CF93CDB7FD
:101FE000DEB727970FB6F894DEBF0FBECDBF9D8337
:101FF0008C837F836E838C819D819B838A838E817A
:102000009F81009721F481E090E09F838E83EA8195
:10201000FB81248135818E819F812817390748F003
:10202000EA81FB818E819F819783868381E089830A
:1020300001C01982898127960FB6F894DEBF0FBEC2
:10204000CDBFCF91DF910895DF93CF9300D000D023
:1020500000D0CDB7DEB79E838D838D819E819C831A
:102060008B83EB81FC8124813581EB81FC81808134
:102070009181820F931F9A838983EB81FC81228156
:10208000338189819A81821B930B9A838983898109
:102090009A8101979A838983EB81FC812481358120
:1020A00089819A818217930750F0EB81FC8124810A
:1020B000358189819A81821B930B9A8389838981D7
:1020C0009A8126960FB6F894DEBF0FBECDBFCF9192
:1020D000DF910895DF93CF9300D000D000D0CDB72B
:1020E000DEB79E838D838D819E819C838B838B81C4
:1020F0009C810E9454169A83898389819A812696AD
:102100000FB6F894DEBF0FBECDBFCF91DF9108951B
:10211000EF92FF920F931F93DF93CF93CDB7DEB76C
:1021200063970FB6F894DEBF0FBECDBF9D878C8737
:102130007F876E87598B488B3B8B2A8B8C859D853F
:1021400098878F831C821B82888999899A838983C7
:10215000EF81F8858685882F90E0817090708823C4
:1021600029F089819A8102969A8389838A899B8939
:10217000009709F440C0CE0109960E941D1E0FB6BB
:10218000F8940F928F8198850E9424109C838B83F2
:102190002B813C8189819A812817390750F580E08D
:1021A00090E00E942D230E94861FEF81F88593877F
:1021B00082870F900FBEEA89FB8960E070E080E0C3
:1021C00090E020E030E040E050E000E010E07F01EF
:1021D0000E943620EF81F88513861286CE0109967B
:1021E0009E012E5E3F4FB9010E94541E882339F292
:1021F00002C00F900FBE8B819C81009731F48F81BC
:1022000098850E9424109C838B838F8198852E85CE
:102210003F8548895989EB81FC81A981BA81B9013F
:102220009F018D010E94CD119E838D838D819E81A2
:10223000009739F18F8198850E9454169C01EF8197
:10224000F8858681978128173907D8F00E94B51A3A
:10225000EF81F88580859185009789F0EF81F88579
:102260008085918540E050E060E070E020E000E093
:1022700010E00E94D220EF81F885118610860E941E
:10228000C11A8D819E8163960FB6F894DEBF0FBE92
:10229000CDBFCF91DF911F910F91FF90EF900895E7
:1022A000EF92FF920F931F93DF93CF93CDB7DEB7DB
:1022B00061970FB6F894DEBF0FBECDBF9B878A87AC
:1022C0007D876C875F874E87398B288B8A859B85B6
:1022D000998788878E859F859B838A83E885F98582
:1022E0008685882F90E081709070882329F08A81FC
:1022F0009B8102969B838A83888599850E942410FE
:102300009D838C83888599852C853D854E855F8549
:10231000EC81FD81AA81BB81B9019F018D010E94E1
:10232000CD119F838E838E819F81009739F188859F
:1023300099850E9454169C01E885F98586819781CC
:1023400028173907D8F01982E885F98580859185A5
:102350000097A1F0E885F98580859185E889F9895C
:1023600040E050E060E070E020E000E010E07F013D
:102370000E94AF21E885F985118610868E819F81A4
:1023800061960FB6F894DEBF0FBECDBFCF91DF913F
:102390001F910F91FF90EF9008950F931F93DF937C
:1023A000CF93CDB7DEB761970FB6F894DEBF0FBEFF
:1023B000CDBF9D838C837F836E83598748873B87FE
:1023C0002A871D870C878A859B85009711F41B82BD
:1023D00038C0EC81FD818685882F90E081709070F7
:1023E0000097D1F481E08B8328853985398B288B40
:1023F0008A859B859F878E872E853F8588899989C9
:102400008217930720F4288939893F872E878E8584
:102410009F859987888715C02A853B858C859D85F2
:102420002817390768F081E08B839E01285F3F4FB2
:102430008C819D81B90142E050E00E941A1501C0D3
:102440001B828B81882361F02E813F8148855985CD
:102450008C819D81B9010E941A159A83898302C0DB
:102460001A82198289819A8161960FB6F894DEBF2B
:102470000FBECDBFCF91DF911F910F910895EF92C5
:10248000FF920F931F93DF93CF93CDB7DEB7609783
:102490000FB6F894DEBF0FBECDBF9A8789877C87C1
:1024A0006B875E874D87388B2F8789859A859887BC
:1024B0008F831E821D82EF81F8858685882F90E0AC
:1024C00081709070882329F082E090E09A8389835C
:1024D00002C01A8219828F859889009709F43DC03D
:1024E0000FB6F8940F928F8198850E9454169C83A2
:1024F0008B832B813C8189819A818217930750F0CD
:1025000080E090E00E942D230E94861FEF81F885D5
:10251000918780870F900FBE2B813C8189819A81A2
:102520008217930700F1EF85F88960E070E080E0A2
:1025300090E020E030E040E050E000E010E07F017B
:102540000E943620EF81F885118610868F8198854C
:102550000E9454169C838B8306C08F8198850E94AD
:1025600054169C838B832B813C8189819A818217AD
:10257000930780F58F8198852B853C854D855E85F9
:10258000EB81FC81A981BA81B9019F018D010E9473
:10259000C3139E838D838D819E810097D9F00E9405
:1025A000B51AEF81F88582859385009789F0EF81D0
:1025B000F8858285938540E050E060E070E020E09F
:1025C00000E010E00E94D220EF81F8851386128689
:1025D0000E94C11A8D819E8160960FB6F894DEBF6D
:1025E0000FBECDBFCF91DF911F910F91FF90EF9064
:1025F0000895DF93CF93CDB7DEB72C970FB6F8943D
:10260000DEBF0FBECDBF9C878B878B859C8598874F
:102610008F83EF81F8858685882F90E08170907098
:10262000882361F18F8198850E9454169C838B8347
:102630008B819C8183309105F0F0EF81F88580815A
:1026400091819A8389839E01275F3F4F8F8198856F
:10265000EB81FC81B90142E050E09F010E94A71587
:1026600089859A859E838D83EF81F88589819A81FA
:102670009183808305C01E821D8202C01E821D823E
:102680008D819E812C960FB6F894DEBF0FBECDBF14
:10269000CF91DF910895EF92FF920F931F93DF93F5
:1026A000CF93CDB7DEB761970FB6F894DEBF0FBEFC
:1026B000CDBF9B878A877D876C875F874E87398BE5
:1026C000288B8A859B85998788871F821E82E8854B
:1026D000F9858685882F90E081709070882329F095
:1026E00082E090E09B838A8302C01B821A828885E5
:1026F00099850E9454169D838C832C813D818A810B
:102700009B818217930780F5888599852C853D8567
:102710004E855F85EC81FD81AA81BB81B9019F0156
:102720008D010E94C3139F838E838E819F810097AA
:10273000D9F01982E885F985828593850097A1F003
:10274000E885F98582859385E889F98940E050E03C
:1027500060E070E020E000E010E07F010E94AF2127
:10276000E885F985138612868E819F8161960FB662
:10277000F894DEBF0FBECDBFCF91DF911F910F91B7
:10278000FF90EF9008950F931F93DF93CF93CDB7F2
:10279000DEB762970FB6F894DEBF0FBECDBF9A8743
:1027A00089877C876B875E874D87388B2F871A8B4D
:1027B000098B89899A89009791F1E985FA85808149
:1027C00091819E838D83AE01495F5F4F89859A8594
:1027D00029893A89EF85F889BA01A9019F010E94E8
:1027E000A7158F8198859A8389832F853889898950
:1027F0009A89A901481B590BCA01988B8F87298197
:102800003A818D859E858217930768F4E985FA855C
:102810008D819E81918380831A82198204C08D8567
:102820009E859A8389834B855C8589859A852981D4
:102830003A81EF85F889BA01A9019F010E94A71585
:102840009C838B838B819C8162960FB6F894DEBF4C
:102850000FBECDBFCF91DF911F910F910895DF93F0
:10286000CF93CDB7DEB727970FB6F894DEBF0FBE74
:10287000CDBF9F838E838E819F819D838C83EC81CE
:10288000FD81808191819A838983EC81FD81228100
:10289000338189819A812817390719F481E08B8364
:1028A00001C01B828B8127960FB6F894DEBF0FBE46
:1028B000CDBFCF91DF910895DF93CF93CDB7DEB732
:1028C00027970FB6F894DEBF0FBECDBF9F838E83D0
:1028D0008E819F819A838983E981FA818685882FF9
:1028E00090E081709070882329F082E090E09C83D2
:1028F0008B8302C01C821B828E819F810E942410C8
:102900009C018B819C818217930718F081E08D8355
:1029100001C01D828D8127960FB6F894DEBF0FBED1
:10292000CDBFCF91DF910895EF92FF920F931F9348
:10293000DF93CF93CDB7DEB728970FB6F894DEBFFD
:102940000FBECDBF9E838D8378876F838D819E81DF
:102950009C838B831982EB81FC8180859185009714
:10296000B9F0EB81FC8180859185EF81F88540E0AD
:1029700050E060E070E020E000E010E07F010E94A5
:10298000AF21EB81FC811186108681E08A8301C032
:102990001A828A8128960FB6F894DEBF0FBECDBF8B
:1029A000CF91DF911F910F91FF90EF900895EF92DB
:1029B000FF920F931F93DF93CF93CDB7DEB7289786
:1029C0000FB6F894DEBF0FBECDBF9E838D83788790
:1029D0006F838D819E819C838B831982EB81FC8127
:1029E000828593850097B9F0EB81FC818285938580
:1029F000EF81F88540E050E060E070E020E000E02A
:102A000010E07F010E94AF21EB81FC8113861286CA
:102A100081E08A8301C01A828A8128960FB6F894D1
:102A2000DEBF0FBECDBFCF91DF911F910F91FF9001
:102A3000EF900895DF93CF93CDB7DEB72E970FB603
:102A4000F894DEBF0FBECDBF9E838D8378876F83E2
:102A50005A874987ED81FE81828193819C838B8394
:102A6000ED81FE81248135818B819C81A901481BE8
:102A7000590BCA0129853A853E872D879C878B870C
:102A80004B855C858D859E858417950720F42D8563
:102A90003E853C872B874B855C855A834983ED8136
:102AA000FE81248535858B819C81820F931F2F8128
:102AB000388549815A81B9010E94872429853A8540
:102AC00089819A8182179307B0F4ED81FE81648534
:102AD00075852F81388589819A81A901480F591FF1
:102AE00029853A8589819A81281B390BCB01BA0146
:102AF000A9010E9487242B813C8189859A85820FB8
:102B0000931F9C838B83ED81FE81248135818B8192
:102B10009C818217930750F0ED81FE8124813581DD
:102B20008B819C81821B930B9C838B83ED81FE8127
:102B30008B819C819383828389859A852E960FB69B
:102B4000F894DEBF0FBECDBFCF91DF910895DF9324
:102B5000CF93CDB7DEB766970FB6F894DEBF0FBE42
:102B6000CDBF98878F837A8769875C874B873E873D
:102B70002D872D853E853A8B298B4B855C85588B1F
:102B80004F878F85988929893A892817390720F432
:102B900049895A89588B4F878F8598899E838D8361
:102BA0008D819E81009709F474C0EF81F885808142
:102BB00091819A838983EF81F88524813581898188
:102BC0009A81A901481B590BCA012D813E813E8B78
:102BD0002D8B9C8B8B8B4B895C898D899E8984176F
:102BE000950720F42D893E893C8B2B8B4B895C8982
:102BF0005C834B83EF81F8852485358589819A81B3
:102C0000A901480F591F89859A852B813C81BA01FA
:102C1000A9010E9487242D813E818B819C8182178E
:102C20009307B0F429853A858B819C81B901680F9F
:102C3000791FEF81F885448555852D813E818B81F3
:102C40009C81281B390BCB01BA01A9010E94872462
:102C500029813A818D819E81820F931F9A83898376
:102C6000EF81F8852481358189819A8182179307C4
:102C700050F0EF81F8852481358189819A81821B0A
:102C8000930B9A838983EF81F88589819A81918357
:102C900080838D819E8166960FB6F894DEBF0FBE4D
:102CA000CDBFCF91DF910895DF93CF9300D000D0B7
:102CB000CDB7DEB79C838B83EB81FC81248135818A
:102CC000EB81FC8182819381820F931F9A83898398
:102CD000EB81FC812081318189819A81821B930B58
:102CE0009A838983EB81FC812481358189819A8152
:102CF0008217930750F0EB81FC8124813581898113
:102D00009A81821B930B9A83898389819A810F9080
:102D10000F900F900F90CF91DF9108950F93DF9355
:102D2000CF93CDB7DEB729970FB6F894DEBF0FBEAD
:102D3000CDBF9A8389837C836B835E834D83388781
:102D40002F83098789819A8160E070E04FE050E02D
:102D50000E949024E981FA818B819C8195878487E8
:102D6000E981FA818D819E8195838483E981FA814D
:102D70008F81988597838683E981FA818985868703
:102D800029960FB6F894DEBF0FBECDBFCF91DF916D
:102D90000F9108958F929F92AF92BF92CF92DF9240
:102DA000EF92FF920F931F93DF93CF93CDB7DEB7D0
:102DB00060970FB6F894DEBF0FBECDBF9F838E83A2
:102DC000798768875B874A873D872C870E87F88AD3
:102DD000EF868A859B850E9462069A838983898112
:102DE0009A810097B1F088E290E00E9462069D838C
:102DF0008C838C819D81009739F0EC81FD818981E4
:102E00009A81908F878B07C089819A810E94B8062A
:102E100002C01D821C828C819D810097E9F08A8509
:102E20009B859C0140E050E08E819F81688579857B
:102E3000EC85FD85AF85B889AC80BD808F01EE84BF
:102E40006D01882499240E9442178C819D810E94E3
:102E5000FE1781E08B8302C08FEF8B838B8160969E
:102E60000FB6F894DEBF0FBECDBFCF91DF911F919B
:102E70000F91FF90EF90DF90CF90BF90AF909F9019
:102E80008F9008958F929F92AF92BF92CF92DF92D0
:102E9000EF920F931F93DF93CF93CDB7DEB7649775
:102EA0000FB6F894DEBF0FBECDBF9D838C837F83AA
:102EB0006E83288739874A875B871D870C87EE8654
:102EC000D88ACF86BA8AA98A9C8A8B8AE989FA89A4
:102ED0002789308D888599850197820F931F9B8361
:102EE0008A838E819F81009751F1198221C0898147
:102EF000482F50E08981282F30E08E819F81FC018E
:102F0000E20FF31F208189899A89840F951FFC01A4
:102F1000799620838981282F30E08E819F81FC0162
:102F2000E20FF31F8081882331F089818F5F8983CD
:102F300089818A30E0F2E989FA8912A203C0E9891D
:102F4000FA89118E8E85843010F083E08E87E989AE
:102F5000FA898E85868B89899A8902960E9408074C
:102F600089899A890C960E940807E989FA898989D2
:102F70009A89918780878E85282F30E084E090E0C1
:102F8000821B930BE989FA8995878487E989FA89F5
:102F900089899A89938B828BE989FA8913A214A271
:102FA00015A216A2E989FA8917A28A819B812C8130
:102FB0003D814C855D85B9010E944900E989FA8906
:102FC000918380838F859889009731F0EF85F88908
:102FD00089899A899183808364960FB6F894DEBFBD
:102FE0000FBECDBFCF91DF911F910F91EF90DF907A
:102FF000CF90BF90AF909F908F900895DF93CF9325
:1030000000D0CDB7DEB79A8389830FB6F8940F92BC
:1030100080915B068F5F80935B068091580690914C
:103020005906009769F489819A8190935906809393
:10303000580680915B068130B9F40E94D51E14C0F9
:1030400080915F06882381F4E0915806F09159063B
:103050009689E981FA818689891730F089819A8178
:103060009093590680935806809163068F5F8093F2
:103070006306E981FA81968980915E06891728F4B2
:10308000E981FA81868980935E06E981FA818689E1
:10309000282F30E0C901880F991F880F991F880FCA
:1030A000991F820F931FAC014759594F89819A810B
:1030B0009C012E5F3F4FCA01B9010E9418070F9073
:1030C0000FBE80915F06882361F0E0915806F09171
:1030D00059069689E981FA818689981710F40E9429
:1030E00008020F900F90CF91DF910895DF93CF9357
:1030F00000D000D000D0CDB7DEB79C838B830FB655
:10310000F8940F928B819C81009739F48091580636
:10311000909159069E838D8304C08B819C819E83F0
:103120008D838D819E819A83898389819A8102967C
:103130000E94C807E981FA8184899589009729F05E
:1031400089819A810C960E94C807809163068F5FDF
:1031500080936306209158063091590689819A819F
:103160008217930781F489819A819C012E5F3F4FDA
:103170008CEA96E0B9010E94180780915A068F5F89
:1031800080935A060BC080915B06815080935B064A
:1031900089819A810E94451F0E945B1F0F900FBE7C
:1031A00080915F06882359F0209158063091590686
:1031B00089819A818217930711F40E94080226964A
:1031C0000FB6F894DEBF0FBECDBFCF91DF9108954B
:1031D000DF93CF9300D00F92CDB7DEB79B838A8366
:1031E00019828A819B81009751F00E94B51A8A81C9
:1031F0009B8160E00E9467230E94C11A89838981B4
:10320000882311F40E9408020F900F900F90CF9125
:10321000DF910895DF93CF9300D000D000D0CDB7D9
:10322000DEB79C838B830FB6F8940F928B819C81C1
:10323000009739F480915806909159069E838D83AA
:1032400004C08B819C819E838D838D819E819A8316
:10325000898389819A8102960E94C807E981FA814F
:1032600084899589009729F089819A810C960E941A
:10327000C80789819A819C012E5F3F4F85EB96E0BC
:10328000B9010E941807E981FA8187A1813019F4F8
:10329000E981FA8117A20F900FBE80915F06882303
:1032A00039F00FB6F8940F920E945B1F0F900FBE7B
:1032B000209158063091590689819A818217930787
:1032C000A1F480915F06882319F00E9408020DC0C6
:1032D0009091B50680915B06981729F410925906D3
:1032E0001092580602C00E94961C26960FB6F894BB
:1032F000DEBF0FBECDBFCF91DF910895DF93CF9397
:1033000000D000D00F92CDB7DEB79D838C831B8297
:103310008C819D819A838983E981FA818285938555
:1033200026E0853B920781F4E981FA8184899589B9
:1033300026E0833A920741F0E981FA8184899589F0
:10334000009711F481E08B838B810F900F900F9089
:103350000F900F90CF91DF910895DF93CF9300D01E
:1033600000D0CDB7DEB79C838B838B819C819A8301
:103370008983209158063091590689819A81821754
:10338000930709F447C089819A81009709F442C0E4
:103390000FB6F8940F9289819A810E947E19882332
:1033A000B9F189819A8102960E94C807E981FA8160
:1033B000968980915E06891728F4E981FA818689C9
:1033C00080935E06E981FA818689282F30E0C90161
:1033D000880F991F880F991F880F991F820F931FBD
:1033E000AC014759594F89819A819C012E5F3F4F0B
:1033F000CA01B9010E941807E981FA819689E09112
:103400005806F09159068689981710F00E94080214
:103410000F900FBE0F900F900F900F90CF91DF91F4
:103420000895DF93CF9300D000D000D0CDB7DEB7A2
:103430009E838D831C828D819E819B838A831982CA
:103440008A819B810E947E19882309F446C080915D
:1034500068068823C1F5EA81FB819689E0915806C8
:10346000F09159068689981710F081E08C838A8143
:103470009B8102960E94C807EA81FB819689809110
:103480005E06891728F4EA81FB81868980935E06AF
:10349000EA81FB818689282F30E0C901880F991FB6
:1034A000880F991F880F991F820F931FAC014759EE
:1034B000594F8A819B819C012E5F3F4FCA01B90100
:1034C0000E9418070AC08A819B819C01245F3F4F9C
:1034D00083EA96E0B9010E9418078C8126960FB600
:1034E000F894DEBF0FBECDBFCF91DF910895EF926C
:1034F000FF920F93DF93CF930F92CDB7DEB78BEC94
:103500009EE120E630E0E6E6F6E0B90145E550E070
:1035100020E030E000E07F010E94CA1689838981A3
:10352000813081F4F8948FEF9FEF9093650680933C
:10353000640681E080935F0610925D0610925C063F
:103540000E94CC010F90CF91DF910F91FF90EF90EF
:103550000895DF93CF93CDB7DEB7F89410925F064E
:103560000E940102CF91DF910895DF93CF93CDB7F1
:10357000DEB7809168068F5F80936806CF91DF91F8
:103580000895DF93CF9300D000D0CDB7DEB71C8273
:103590001B821A820FB6F8940F92809168068150B0
:1035A0008093680680916806882309F073C0809133
:1035B0005B06882309F46EC045C0E091A806F0912F
:1035C000A906868197819C838B838B819C810C9635
:1035D0000E94C8078B819C8102960E94C807EB81DC
:1035E000FC81968980915E06891728F4EB81FC8125
:1035F000868980935E06EB81FC818689282F30E0E6
:10360000C901880F991F880F991F880F991F820F72
:10361000931FAC014759594F8B819C819C012E5FB0
:103620003F4FCA01B9010E941807EB81FC819689BE
:10363000E0915806F09159068689981718F081E0B4
:10364000809361068091A306882309F0B6CF8B8111
:103650009C81009711F00E945B1F80916006898316
:103660008981882379F00E94B11B882319F081E0B9
:10367000809361068981815089838981882399F7A4
:103680001092600680916106882321F081E08A8390
:103690000E9408020F900FBE8A810F900F900F902A
:1036A0000F90CF91DF910895DF93CF9300D0CDB7E6
:1036B000DEB70FB6F8940F9280915C0690915D068C
:1036C0009A8389830F900FBE89819A810F900F9002
:1036D000CF91DF910895DF93CF9300D00F92CDB7B4
:1036E000DEB7198280915C0690915D069B838A8388
:1036F0008A819B810F900F900F90CF91DF91089559
:10370000DF93CF93CDB7DEB780915B06CF91DF918A
:103710000895DF93CF9300D000D000D0CDB7DEB7AF
:103720009C838B838B819C81009739F48091580610
:10373000909159069E838D8304C08B819C819E83CA
:103740008D838D819E819A83898389819A8149960F
:1037500026960FB6F894DEBF0FBECDBFCF91DF9196
:103760000895DF93CF93CDB7DEB729970FB6F894BE
:10377000DEBF0FBECDBF1D8280916806882309F091
:10378000C0C080915C0690915D0601969C838B83FE
:103790008B819C8190935D0680935C068B819C81DC
:1037A0000097D9F480919F069091A0069A8389830F
:1037B0008091A1069091A2069093A00680939F0607
:1037C00089819A819093A2068093A10680916206D6
:1037D0008F5F809362060E945B1F20916406309188
:1037E00065068B819C818217930708F471C0E09174
:1037F0009F06F091A0068081882339F48FEF9FEF18
:10380000909365068093640663C0E0919F06F091F3
:10381000A0060580F681E02D8681978199878887AB
:10382000E885F985828193819F838E832B813C81FA
:103830008E819F812817390738F48E819F8190935C
:1038400065068093640644C08885998502960E9427
:10385000C807E885F98584899589009729F08885C6
:1038600099850C960E94C807E885F985968980910C
:103870005E06891728F4E885F985868980935E06B7
:10388000E885F9858689282F30E0C901880F991FBE
:10389000880F991F880F991F820F931FAC014759FA
:1038A000594F888599859C012E5F3F4FCA01B90108
:1038B0000E941807E885F9859689E0915806F091ED
:1038C00059068689981708F492CF81E08D838FCFAF
:1038D000E0915806F09159068689282F30E0C901F9
:1038E000880F991F880F991F880F991F820F931FA8
:1038F000FC01E759F94F8081823040F081E08D83EF
:1039000005C0809160068F5F80936006809161069C
:10391000882311F081E08D838D8129960FB6F8946C
:10392000DEBF0FBECDBFCF91DF910895DF93CF9360
:1039300000D00F92CDB7DEB780916806882321F0C2
:1039400081E08093610659C01092610680915E0605
:103950008B8303C08B8181508B838B81282F30E038
:10396000C901880F991F880F991F880F991F820F0F
:10397000931FFC01E759F94F8081882359F38B810C
:10398000282F30E0C901880F991F880F991F880FD1
:10399000991F820F931F8759994F9A838983E981D1
:1039A000FA810180F281E02D82819381E981FA819F
:1039B00092838183E981FA812181328189819A818F
:1039C00003962817390759F4E981FA810180F281B9
:1039D000E02D82819381E981FA8192838183E9815B
:1039E000FA810180F281E02D8681978190935906BA
:1039F000809358068B8180935E060F900F900F90F6
:103A0000CF91DF910895DF93CF9300D000D0CDB751
:103A1000DEB79A8389837C836B838091580690916B
:103A200059069C01245F3F4F89819A81B9010E9408
:103A30005C078B819C8161E00E9467230F900F904F
:103A40000F900F90CF91DF910895DF93CF9300D027
:103A500000D000D0CDB7DEB79A8389837C836B8397
:103A60005E834D83E0915806F09159068B819C81CD
:103A700090689587848780915806909159069C019B
:103A8000245F3F4F89819A81B9010E9418078D8177
:103A90009E8161E00E94672326960FB6F894DEBFF0
:103AA0000FBECDBFCF91DF910895DF93CF9300D0AC
:103AB00000D00F92CDB7DEB79D838C83EC81FD8162
:103AC0000580F681E02D868197819B838A838A8198
:103AD0009B810C960E94C80780916806882361F537
:103AE0008A819B8102960E94C807EA81FB819689A0
:103AF00080915E06891728F4EA81FB81868980938C
:103B00005E06EA81FB818689282F30E0C901880F93
:103B1000991F880F991F880F991F820F931FAC015F
:103B20004759594F8A819B819C012E5F3F4FCA01A3
:103B3000B9010E9418070AC08A819B819C01245FF9
:103B40003F4F83EA96E0B9010E941807EA81FB81A2
:103B50009689E0915806F09159068689891730F4C4
:103B600081E0898381E08093610601C019828981A7
:103B70000F900F900F900F900F90CF91DF910895BD
:103B8000DF93CF9300D000D000D0CDB7DEB79C83B9
:103B90008B837E836D838D819E819068EB81FC8118
:103BA00091838083EB81FC81868197819A838983CD
:103BB0008B819C810E94C80789819A8102960E940C
:103BC000C807E981FA81968980915E06891728F4F1
:103BD000E981FA81868980935E06E981FA81868986
:103BE000282F30E0C901880F991F880F991F880F6F
:103BF000991F820F931FAC014759594F89819A81B0
:103C00009C012E5F3F4FCA01B9010E941807E9814C
:103C1000FA819689E0915806F091590686898917AC
:103C200018F481E08093610626960FB6F894DEBF03
:103C30000FBECDBFCF91DF910895DF93CF9300D01A
:103C4000CDB7DEB79A8389830FB6F8940F9280912F
:103C50006206E981FA81808380915C0690915D061D
:103C6000E981FA81928381830F900FBE0F900F90AC
:103C7000CF91DF910895DF93CF9300D0CDB7DEB71A
:103C80009A83898380916206E981FA818083809199
:103C90005C0690915D06E981FA81928381830F90A1
:103CA0000F90CF91DF910895DF93CF93CDB7DEB71B
:103CB00029970FB6F894DEBF0FBECDBF9F838E83CA
:103CC000798768870FB6F8940F9280915C0690917F
:103CD0005D069C838B83EE81FF81218132818B8104
:103CE0009C81821B930B9A838983E885F985808167
:103CF00091812FEF8F3F920711F41D8236C0EE8124
:103D0000FF81908180916206981761F0EE81FF81BA
:103D1000218132818B819C818217930718F081E089
:103D20008D8323C0E885F9852081318189819A813D
:103D300082179307A0F4E885F98520813181898174
:103D40009A81A901481B590BCA01E885F98591831D
:103D500080838E819F810E943B1E1D8206C0E88564
:103D6000F9851182108281E08D830F900FBE8D81C5
:103D700029960FB6F894DEBF0FBECDBFCF91DF916D
:103D80000895DF93CF93CDB7DEB781E080936106CE
:103D9000CF91DF910895DF93CF9300D0CDB7DEB7F9
:103DA0009A8389830E94161FFDCFDF93CF930F92D2
:103DB000CDB7DEB7198213C08981282F30E0C90141
:103DC000880F991F880F991F880F991F820F931FC3
:103DD0008759994F0E94DE0689818F5F8983898187
:103DE000843050F38DE896E00E94DE0686E996E086
:103DF0000E94DE0683EA96E00E94DE068CEA96E0E8
:103E00000E94DE0685EB96E00E94DE068DE896E0D5
:103E10009093A00680939F0686E996E09093A20671
:103E20008093A1060F90CF91DF910895DF93CF93F8
:103E300000D0CDB7DEB720C00FB6F8940F92E09156
:103E4000B106F091B206868197819A838983898130
:103E50009A8102960E94C80780915B0681508093E8
:103E60005B0680915A06815080935A060F900FBED0
:103E700089819A810E94451F80915A068823E1F624
:103E80000F900F90CF91DF910895DF93CF9300D0E3
:103E9000CDB7DEB79A838983E981FA818789908DCE
:103EA0000E94B80689819A810E94B8060F900F90EF
:103EB000CF91DF910895DF93CF9300D0CDB7DEB7D8
:103EC000E0919F06F091A0068081882339F48FEF5E
:103ED0009FEF909365068093640613C0E0919F0660
:103EE000F091A0060580F681E02D868197819A8366
:103EF0008983E981FA818281938190936506809319
:103F000064060F900F90CF91DF910895DF93CF93C8
:103F100000D0CDB7DEB780915806909159069A83AC
:103F2000898389819A810F900F90CF91DF910895B5
:103F3000DF93CF9300D0CDB7DEB7E0915806F09174
:103F40005906848595859A838983A0915806B091F6
:103F50005906E0915806F09159068689282F30E0DD
:103F600084E090E0821B930B1D969C938E931C978C
:103F700089819A810F900F90CF91DF910895DF93FF
:103F8000CF93CDB7DEB727970FB6F894DEBF0FBE3D
:103F9000CDBF8D837F836E830FB6F8940F92E0912F
:103FA0005806F091590683A194A1A5A1B6A1009746
:103FB000A105B10589F4E0915806F091590681E018
:103FC00087A38E819F81009739F08E819F8161E068
:103FD0000E9467230E9408020F900FBE0FB6F8944C
:103FE0000F92E0915806F091590683A194A1A5A1E2
:103FF000B6A189839A83AB83BC8389819A81AB8183
:10400000BC810097A105B105D9F08D81882349F0C5
:10401000E0915806F091590613A214A215A216A217
:104020000FC0E0915806F091590689819A81AB81C1
:10403000BC810197A109B10983A394A3A5A3B6A349
:10404000E0915806F091590617A20F900FBE898192
:104050009A81AB81BC81BC01CD0127960FB6F89443
:10406000DEBF0FBECDBFCF91DF910895EF92FF92DB
:104070000F931F93DF93CF93CDB7DEB72D970FB676
:10408000F894DEBF0FBECDBF6A837B838C839D8394
:104090002E833F83488759871B870A87FD86EC86D6
:1040A0000FB6F8940F92E0915806F091590687A147
:1040B000823049F1E0915806F091590623A134A1CC
:1040C00045A156A18A819B81AC81BD818095909547
:1040D000A095B09582239323A423B52383A394A30F
:1040E000A5A3B6A3E0915806F091590681E087A3F5
:1040F0008C859D85009739F08C859D8561E00E94B7
:1041000067230E9408020F900FBE0FB6F8940F921B
:104110008A859B85009771F0E0915806F0915906C9
:1041200083A194A1A5A1B6A1EA85FB858083918393
:10413000A283B383E0915806F091590687A182309B
:1041400011F019821AC0E0915806F091590623A186
:1041500034A145A156A18E819F81A885B9858095FE
:104160009095A095B09582239323A423B52383A390
:1041700094A3A5A3B6A381E08983E0915806F091AA
:10418000590617A20F900FBE89812D960FB6F8948D
:10419000DEBF0FBECDBFCF91DF911F910F91FF907A
:1041A000EF9008950F931F93DF93CF93CDB7DEB7B2
:1041B0002F970FB6F894DEBF0FBECDBF9E838D83C1
:1041C0004F83588769877A872B871D870C8781E003
:1041D0008A838D819E819C838B830FB6F8940F9286
:1041E0008C859D85009761F0EB81FC8183A194A172
:1041F000A5A1B6A1EC85FD8580839183A283B383BD
:10420000EB81FC8187A18983EB81FC8182E087A31C
:104210008B85282F30E03F872E878E859F858230C3
:10422000910559F12E853F852330310534F48E8573
:104230009F858130910561F04AC02E853F852330EE
:10424000310559F18E859F858430910589F13FC0F4
:10425000EB81FC8123A134A145A156A18F819885D2
:10426000A985BA85822B932BA42BB52BEB81FC81DE
:1042700083A394A3A5A3B6A32AC0EB81FC8183A149
:1042800094A1A5A1B6A10196A11DB11DEB81FC8150
:1042900083A394A3A5A3B6A31AC0EB81FC818F814D
:1042A0009885A985BA8583A394A3A5A3B6A30FC0B7
:1042B0008981823059F0EB81FC818F819885A985B5
:1042C000BA8583A394A3A5A3B6A301C01A8289814A
:1042D0008130B9F58B819C8102960E94C807EB81E1
:1042E000FC81968980915E06891728F4EB81FC8118
:1042F000868980935E06EB81FC818689282F30E0D9
:10430000C901880F991F880F991F880F991F820F65
:10431000931FAC014759594F8B819C819C012E5FA3
:104320003F4FCA01B9010E941807EB81FC819689B1
:10433000E0915806F09159068689891710F40E9479
:1043400008020F900FBE8A812F960FB6F894DEBF39
:104350000FBECDBFCF91DF911F910F910895EF92C6
:10436000FF920F931F93DF93CF93CDB7DEB7629782
:104370000FB6F894DEBF0FBECDBF9F838E834887F4
:1043800059876A877B872C871E870D87F88AEF8677
:1043900081E08A838E819F819D838C8319828D85A4
:1043A0009E85009761F0EC81FD8183A194A1A5A178
:1043B000B6A1ED85FE8580839183A283B383EC81D2
:1043C000FD8187A18B83EC81FD8182E087A38C85B1
:1043D000282F30E03A8B298B89899A898230910580
:1043E00059F129893A892330310534F489899A8928
:1043F0008130910561F04AC029893A89233031051D
:1044000059F189899A898430910589F13FC0EC81FD
:10441000FD8123A134A145A156A188859985AA854E
:10442000BB85822B932BA42BB52BEC81FD8183A321
:1044300094A3A5A3B6A32AC0EC81FD8183A194A176
:10444000A5A1B6A10196A11DB11DEC81FD8183A39B
:1044500094A3A5A3B6A31AC0EC81FD818885998594
:10446000AA85BB8583A394A3A5A3B6A30FC08B8104
:10447000823059F0EC81FD8188859985AA85BB85BC
:1044800083A394A3A5A3B6A301C01A828B81813014
:1044900009F04FC080916806882361F58C819D8169
:1044A00002960E94C807EC81FD81968980915E0684
:1044B000891728F4EC81FD81868980935E06EC8162
:1044C000FD818689282F30E0C901880F991F880F48
:1044D000991F880F991F820F931FAC014759594F9D
:1044E0008C819D819C012E5F3F4FCA01B9010E94C2
:1044F00018070AC08C819D819C01245F3F4F83EA8D
:1045000096E0B9010E941807EC81FD819689E0913F
:104510005806F09159068689891758F48F8598892D
:10452000009721F0EF85F88981E0808381E0809316
:1045300061068A8162960FB6F894DEBF0FBECDBFCA
:10454000CF91DF911F910F91FF90EF900895DF932E
:10455000CF93CDB7DEB728970FB6F894DEBF0FBE66
:10456000CDBF9E838D8378876F838D819E819C8351
:104570008B831982EB81FC8187A18A83EB81FC818B
:1045800082E087A3EB81FC8183A194A1A5A1B6A1C0
:104590000196A11DB11DEB81FC8183A394A3A5A36A
:1045A000B6A38A81813009F04FC0809168068823C4
:1045B00061F58B819C8102960E94C807EB81FC818A
:1045C000968980915E06891728F4EB81FC818689A3
:1045D00080935E06EB81FC818689282F30E0C9013B
:1045E000880F991F880F991F880F991F820F931F9B
:1045F000AC014759594F8B819C819C012E5F3F4FE5
:10460000CA01B9010E9418070AC08B819C819C01D4
:10461000245F3F4F83EA96E0B9010E941807EB81BF
:10462000FC819689E0915806F09159068689891790
:1046300058F48F819885009721F0EF81F88581E00B
:10464000808381E08093610628960FB6F894DEBFE0
:104650000FBECDBFCF91DF910895DF93CF93CDB73C
:10466000DEB727970FB6F894DEBF0FBECDBF9D8390
:104670008C838C819D81009739F4809158069091AC
:1046800059069F838E8304C08C819D819F838E8376
:104690008E819F819B838A830FB6F8940F92EA8163
:1046A000FB8187A1823031F4EA81FB8117A281E08E
:1046B000898301C019820F900FBE898127960FB69A
:1046C000F894DEBF0FBECDBFCF91DF910895DF9389
:1046D000CF93CDB7DEB727970FB6F894DEBF0FBEE6
:1046E000CDBF9E838D836F8380915C0690915D0624
:1046F0009A838983809158069091590602960E9468
:10470000C8078D819E812FEF8F3F920781F48F81A3
:10471000882369F080915806909159069C012E5F7C
:104720003F4F85EB96E0B9010E94180743C02981ED
:104730003A818D819E81820F931F9C838B83E091B0
:104740005806F09159068B819C81938382832B813B
:104750003C8189819A812817390770F48091A106DC
:104760009091A20620915806309159062E5F3F4F36
:10477000B9010E945C071EC040919F065091A0069F
:1047800080915806909159069C012E5F3F4FCA01B7
:10479000B9010E945C0720916406309165068B8107
:1047A0009C818217930730F48B819C8190936506DE
:1047B0008093640627960FB6F894DEBF0FBECDBF78
:1047C000CF91DF910895DF93CF9300D0CDB7DEB7BF
:1047D0009A8389838091C4069091C50664E670E04F
:1047E0000E94260B813041F0A5E3B0E0E5E3F0E064
:1047F000808184608C93EECFA5E3B0E0E5E3F0E048
:1048000080818B7F8C93E6CFDF93CF9300D0CDB7A1
:10481000DEB79A838983E0E3F0E08081882F90E01F
:1048200081709070009759F48091C4069091C506EC
:1048300060E070E040E050E020E00E94260982E362
:1048400090E00E94E818E7CFDF93CF9300D0CDB778
:10485000DEB79A838983A4E3B0E0E4E3F0E08081EB
:1048600084608C93A1E3B0E0E1E3F0E080818E7F8F
:104870008C93A2E3B0E0E2E3F0E0808181608C936E
:104880008091C2069091C3060E947618E4CFEF9201
:10489000FF920F93DF93CF93CDB7DEB783EE93E212
:1048A00025E630E0E0ECF6E0B90145E550E020E037
:1048B00030E001E07F010E94CA1684E094E22BE61A
:1048C00030E0EEEBF6E0B90145E550E020E030E005
:1048D00002E07F010E94CA1684E294E221E730E000
:1048E000E2ECF6E0B90145E550E020E030E003E01D
:1048F0007F010E94CA1681E060E043E00E949A08AE
:104900009093C5068093C4060E94771AFFCFFB01DF
:10491000DC0102C001900D9241505040D8F708953B
:10492000DC0101C06D9341505040E0F70895F894C8
:02493000FFCFB7
:1049320049444C45005461736B31005461736B32CE
:08494200005461736B330000A7
:00000001FF
